{
  "contractName": "Access",
  "abi": [
    {
      "constant": true,
      "inputs": [
        {
          "name": "",
          "type": "uint256"
        }
      ],
      "name": "idToAddr",
      "outputs": [
        {
          "name": "",
          "type": "address"
        }
      ],
      "payable": false,
      "stateMutability": "view",
      "type": "function"
    },
    {
      "constant": true,
      "inputs": [],
      "name": "registeredUsers",
      "outputs": [
        {
          "name": "",
          "type": "uint256"
        }
      ],
      "payable": false,
      "stateMutability": "view",
      "type": "function"
    },
    {
      "constant": true,
      "inputs": [
        {
          "name": "",
          "type": "uint256"
        }
      ],
      "name": "idToUser",
      "outputs": [
        {
          "name": "name",
          "type": "string"
        },
        {
          "name": "id",
          "type": "uint256"
        }
      ],
      "payable": false,
      "stateMutability": "view",
      "type": "function"
    },
    {
      "constant": true,
      "inputs": [
        {
          "name": "",
          "type": "address"
        }
      ],
      "name": "addressToPassword",
      "outputs": [
        {
          "name": "",
          "type": "string"
        }
      ],
      "payable": false,
      "stateMutability": "view",
      "type": "function"
    },
    {
      "constant": true,
      "inputs": [
        {
          "name": "",
          "type": "address"
        }
      ],
      "name": "addressToUsers",
      "outputs": [
        {
          "name": "name",
          "type": "string"
        },
        {
          "name": "id",
          "type": "uint256"
        }
      ],
      "payable": false,
      "stateMutability": "view",
      "type": "function"
    },
    {
      "constant": false,
      "inputs": [
        {
          "name": "name",
          "type": "string"
        },
        {
          "name": "pass",
          "type": "string"
        }
      ],
      "name": "registerUser",
      "outputs": [
        {
          "name": "",
          "type": "bool"
        }
      ],
      "payable": false,
      "stateMutability": "nonpayable",
      "type": "function"
    },
    {
      "constant": true,
      "inputs": [
        {
          "name": "pass",
          "type": "string"
        }
      ],
      "name": "login",
      "outputs": [
        {
          "name": "",
          "type": "bool"
        }
      ],
      "payable": false,
      "stateMutability": "view",
      "type": "function"
    },
    {
      "constant": true,
      "inputs": [],
      "name": "getGrantList",
      "outputs": [
        {
          "name": "",
          "type": "address[]"
        }
      ],
      "payable": false,
      "stateMutability": "view",
      "type": "function"
    },
    {
      "constant": true,
      "inputs": [
        {
          "name": "add",
          "type": "address"
        }
      ],
      "name": "getPermissionBit",
      "outputs": [
        {
          "name": "",
          "type": "uint256"
        }
      ],
      "payable": false,
      "stateMutability": "view",
      "type": "function"
    },
    {
      "constant": false,
      "inputs": [
        {
          "name": "ids",
          "type": "uint256[]"
        },
        {
          "name": "permission",
          "type": "uint256[]"
        }
      ],
      "name": "editGrantList",
      "outputs": [],
      "payable": false,
      "stateMutability": "nonpayable",
      "type": "function"
    },
    {
      "constant": true,
      "inputs": [
        {
          "name": "userAddress",
          "type": "address"
        }
      ],
      "name": "requestAccess",
      "outputs": [
        {
          "name": "",
          "type": "uint256"
        },
        {
          "name": "",
          "type": "string"
        }
      ],
      "payable": false,
      "stateMutability": "view",
      "type": "function"
    },
    {
      "constant": true,
      "inputs": [
        {
          "name": "userAddress",
          "type": "address"
        }
      ],
      "name": "getFile",
      "outputs": [
        {
          "name": "",
          "type": "string"
        }
      ],
      "payable": false,
      "stateMutability": "view",
      "type": "function"
    },
    {
      "constant": false,
      "inputs": [
        {
          "name": "userAddress",
          "type": "address"
        },
        {
          "name": "file_content",
          "type": "string"
        }
      ],
      "name": "saveFile",
      "outputs": [],
      "payable": false,
      "stateMutability": "nonpayable",
      "type": "function"
    },
    {
      "constant": true,
      "inputs": [],
      "name": "getName",
      "outputs": [
        {
          "name": "",
          "type": "string"
        }
      ],
      "payable": false,
      "stateMutability": "view",
      "type": "function"
    }
  ],
  "bytecode": "0x60806040526020604051908101604052806000815250600590805190602001906200002c92919062000041565b503480156200003a57600080fd5b50620000f0565b828054600181600116156101000203166002900490600052602060002090601f016020900481019282601f106200008457805160ff1916838001178555620000b5565b82800160010185558215620000b5579182015b82811115620000b457825182559160200191906001019062000097565b5b509050620000c49190620000c8565b5090565b620000ed91905b80821115620000e9576000816000905550600101620000cf565b5090565b90565b611bd480620001006000396000f3006080604052600436106100d0576000357c0100000000000000000000000000000000000000000000000000000000900463ffffffff168063022cb271146100d55780630b87c1e01461019857806314e5735f1461025457806317d7de7c146102c05780631d2e4afd146103505780633a7d280c146104175780634511f56e14610498578063660d5887146105055780636f74a1c2146105305780638dc22cba146105b9578063a80cc77d14610666578063cfd00bb2146106bd578063f405cbf614610766578063fe5d061914610822575b600080fd5b3480156100e157600080fd5b50610116600480360381019080803573ffffffffffffffffffffffffffffffffffffffff1690602001909291905050506108e5565b6040518083815260200180602001828103825283818151815260200191508051906020019080838360005b8381101561015c578082015181840152602081019050610141565b50505050905090810190601f1680156101895780820380516001836020036101000a031916815260200191505b50935050505060405180910390f35b3480156101a457600080fd5b506101d9600480360381019080803573ffffffffffffffffffffffffffffffffffffffff169060200190929190505050610ae3565b6040518080602001828103825283818151815260200191508051906020019080838360005b838110156102195780820151818401526020810190506101fe565b50505050905090810190601f1680156102465780820380516001836020036101000a031916815260200191505b509250505060405180910390f35b34801561026057600080fd5b50610269610bca565b6040518080602001828103825283818151815260200191508051906020019060200280838360005b838110156102ac578082015181840152602081019050610291565b505050509050019250505060405180910390f35b3480156102cc57600080fd5b506102d5610ca8565b6040518080602001828103825283818151815260200191508051906020019080838360005b838110156103155780820151818401526020810190506102fa565b50505050905090810190601f1680156103425780820380516001836020036101000a031916815260200191505b509250505060405180910390f35b34801561035c57600080fd5b506103fd600480360381019080803590602001908201803590602001908080601f0160208091040260200160405190810160405280939291908181526020018383808284378201915050505050509192919290803590602001908201803590602001908080601f0160208091040260200160405190810160405280939291908181526020018383808284378201915050505050509192919290505050610d8f565b604051808215151515815260200191505060405180910390f35b34801561042357600080fd5b5061047e600480360381019080803590602001908201803590602001908080601f0160208091040260200160405190810160405280939291908181526020018383808284378201915050505050509192919290505050611122565b604051808215151515815260200191505060405180910390f35b3480156104a457600080fd5b506104c360048036038101908080359060200190929190505050611254565b604051808273ffffffffffffffffffffffffffffffffffffffff1673ffffffffffffffffffffffffffffffffffffffff16815260200191505060405180910390f35b34801561051157600080fd5b5061051a611287565b6040518082815260200191505060405180910390f35b34801561053c57600080fd5b506105b7600480360381019080803573ffffffffffffffffffffffffffffffffffffffff169060200190929190803590602001908201803590602001908080601f016020809104026020016040519081016040528093929190818152602001838380828437820191505050505050919291929050505061128d565b005b3480156105c557600080fd5b506105e460048036038101908080359060200190929190505050611432565b6040518080602001838152602001828103825284818151815260200191508051906020019080838360005b8381101561062a57808201518184015260208101905061060f565b50505050905090810190601f1680156106575780820380516001836020036101000a031916815260200191505b50935050505060405180910390f35b34801561067257600080fd5b506106a7600480360381019080803573ffffffffffffffffffffffffffffffffffffffff1690602001909291905050506114ee565b6040518082815260200191505060405180910390f35b3480156106c957600080fd5b506107646004803603810190808035906020019082018035906020019080806020026020016040519081016040528093929190818152602001838360200280828437820191505050505050919291929080359060200190820180359060200190808060200260200160405190810160405280939291908181526020018383602002808284378201915050505050509192919290505050611586565b005b34801561077257600080fd5b506107a7600480360381019080803573ffffffffffffffffffffffffffffffffffffffff16906020019092919050505061185a565b6040518080602001828103825283818151815260200191508051906020019080838360005b838110156107e75780820151818401526020810190506107cc565b50505050905090810190601f1680156108145780820380516001836020036101000a031916815260200191505b509250505060405180910390f35b34801561082e57600080fd5b50610863600480360381019080803573ffffffffffffffffffffffffffffffffffffffff16906020019092919050505061190a565b6040518080602001838152602001828103825284818151815260200191508051906020019080838360005b838110156108a957808201518184015260208101905061088e565b50505050905090810190601f1680156108d65780820380516001836020036101000a031916815260200191505b50935050505060405180910390f35b600060606000806000806000808873ffffffffffffffffffffffffffffffffffffffff163373ffffffffffffffffffffffffffffffffffffffff16141561093d5760016109318a610ae3565b81915097509750610ad8565b3395506000808a73ffffffffffffffffffffffffffffffffffffffff1673ffffffffffffffffffffffffffffffffffffffff1681526020019081526020016000209450846002018054905093506000925060009150600090505b83811015610a685784600201818154811015156109b057fe5b9060005260206000200160009054906101000a900473ffffffffffffffffffffffffffffffffffffffff1673ffffffffffffffffffffffffffffffffffffffff168673ffffffffffffffffffffffffffffffffffffffff161415610a5b578460030160008773ffffffffffffffffffffffffffffffffffffffff1673ffffffffffffffffffffffffffffffffffffffff16815260200190815260200160002054925060019150610a68565b8080600101915050610997565b818015610a8057506001831480610a7f5750600083145b5b15610a985782610a8f8a610ae3565b97509750610ad8565b60028090506040805190810160405280600d81526020017f4163636573732044656e69656400000000000000000000000000000000000000815250975097505b505050505050915091565b60606000600360008473ffffffffffffffffffffffffffffffffffffffff1673ffffffffffffffffffffffffffffffffffffffff1681526020019081526020016000209050808054600181600116156101000203166002900480601f016020809104026020016040519081016040528092919081815260200182805460018160011615610100020316600290048015610bbd5780601f10610b9257610100808354040283529160200191610bbd565b820191906000526020600020905b815481529060010190602001808311610ba057829003601f168201915b5050505050915050919050565b606060008060003392506000808473ffffffffffffffffffffffffffffffffffffffff1673ffffffffffffffffffffffffffffffffffffffff168152602001908152602001600020915081600201905080805480602002602001604051908101604052809291908181526020018280548015610c9b57602002820191906000526020600020905b8160009054906101000a900473ffffffffffffffffffffffffffffffffffffffff1673ffffffffffffffffffffffffffffffffffffffff1681526020019060010190808311610c51575b5050505050935050505090565b606060008060003373ffffffffffffffffffffffffffffffffffffffff1673ffffffffffffffffffffffffffffffffffffffff1681526020019081526020016000209050806000018054600181600116156101000203166002900480601f016020809104026020016040519081016040528092919081815260200182805460018160011615610100020316600290048015610d845780601f10610d5957610100808354040283529160200191610d84565b820191906000526020600020905b815481529060010190602001808311610d6757829003601f168201915b505050505091505090565b6000806000806000600460003373ffffffffffffffffffffffffffffffffffffffff1673ffffffffffffffffffffffffffffffffffffffff168152602001908152602001600020935060056040518082805460018160011615610100020316600290048015610e355780601f10610e13576101008083540402835291820191610e35565b820191906000526020600020905b815481529060010190602001808311610e21575b5050915050604051809103902060001916846040518082805460018160011615610100020316600290048015610ea25780601f10610e80576101008083540402835291820191610ea2565b820191906000526020600020905b815481529060010190602001808311610e8e575b5050915050604051809103902060001916141515610ec35760009450611118565b339250600660008154600101919050819055915081816001018190555086816000019080519060200190610ef89291906119c6565b506040805190810160405280601481526020017f5468697320697320612064756d6d792066696c65000000000000000000000000815250600360008573ffffffffffffffffffffffffffffffffffffffff1673ffffffffffffffffffffffffffffffffffffffff1681526020019081526020016000209080519060200190610f819291906119c6565b50806000808573ffffffffffffffffffffffffffffffffffffffff1673ffffffffffffffffffffffffffffffffffffffff16815260200190815260200160002060008201816000019080546001816001161561010002031660029004610fe8929190611a46565b50600182015481600101556002820181600201908054611009929190611acd565b50905050826001600084815260200190815260200160002060006101000a81548173ffffffffffffffffffffffffffffffffffffffff021916908373ffffffffffffffffffffffffffffffffffffffff16021790555080600260008481526020019081526020016000206000820181600001908054600181600116156101000203166002900461109a929190611a46565b506001820154816001015560028201816002019080546110bb929190611acd565b5090505085600460008573ffffffffffffffffffffffffffffffffffffffff1673ffffffffffffffffffffffffffffffffffffffff16815260200190815260200160002090805190602001906111129291906119c6565b50600194505b5050505092915050565b600080600460003373ffffffffffffffffffffffffffffffffffffffff1673ffffffffffffffffffffffffffffffffffffffff1681526020019081526020016000209050826040518082805190602001908083835b60208310151561119c5780518252602082019150602081019050602083039250611177565b6001836020036101000a0380198251168184511680821785525050505050509050019150506040518091039020600019168160405180828054600181600116156101000203166002900480156112295780601f10611207576101008083540402835291820191611229565b820191906000526020600020905b815481529060010190602001808311611215575b50509150506040518091039020600019161415611249576001915061124e565b600091505b50919050565b60016020528060005260406000206000915054906101000a900473ffffffffffffffffffffffffffffffffffffffff1681565b60065481565b6000806000806000803395506000808973ffffffffffffffffffffffffffffffffffffffff1673ffffffffffffffffffffffffffffffffffffffff1681526020019081526020016000209450846002018054905093506000925060009150600090505b838110156113c157846002018181548110151561130957fe5b9060005260206000200160009054906101000a900473ffffffffffffffffffffffffffffffffffffffff1673ffffffffffffffffffffffffffffffffffffffff168673ffffffffffffffffffffffffffffffffffffffff1614156113b4578460030160008773ffffffffffffffffffffffffffffffffffffffff1673ffffffffffffffffffffffffffffffffffffffff168152602001908152602001600020549250600191506113c1565b80806001019150506112f0565b8180156113ce5750600183145b156114285786600360008a73ffffffffffffffffffffffffffffffffffffffff1673ffffffffffffffffffffffffffffffffffffffff16815260200190815260200160002090805190602001906114269291906119c6565b505b5050505050505050565b6002602052806000526040600020600091509050806000018054600181600116156101000203166002900480601f0160208091040260200160405190810160405280929190818152602001828054600181600116156101000203166002900480156114de5780601f106114b3576101008083540402835291602001916114de565b820191906000526020600020905b8154815290600101906020018083116114c157829003601f168201915b5050505050908060010154905082565b6000806000803392506000808473ffffffffffffffffffffffffffffffffffffffff1673ffffffffffffffffffffffffffffffffffffffff16815260200190815260200160002091508160030160008673ffffffffffffffffffffffffffffffffffffffff1673ffffffffffffffffffffffffffffffffffffffff168152602001908152602001600020549050809350505050919050565b60008060008060003394506000808673ffffffffffffffffffffffffffffffffffffffff1673ffffffffffffffffffffffffffffffffffffffff168152602001908152602001600020935083600101549250836002018054905091508360020160006115f29190611b1f565b600090505b8651811015611766578360020160016000898481518110151561161657fe5b90602001906020020151815260200190815260200160002060009054906101000a900473ffffffffffffffffffffffffffffffffffffffff1690806001815401808255809150509060018203906000526020600020016000909192909190916101000a81548173ffffffffffffffffffffffffffffffffffffffff021916908373ffffffffffffffffffffffffffffffffffffffff1602179055505085818151811015156116c057fe5b90602001906020020151846003016000600160008b868151811015156116e257fe5b90602001906020020151815260200190815260200160002060009054906101000a900473ffffffffffffffffffffffffffffffffffffffff1673ffffffffffffffffffffffffffffffffffffffff1673ffffffffffffffffffffffffffffffffffffffff1681526020019081526020016000208190555080806001019150506115f7565b836000808773ffffffffffffffffffffffffffffffffffffffff1673ffffffffffffffffffffffffffffffffffffffff168152602001908152602001600020600082018160000190805460018160011615610100020316600290046117cc929190611a46565b506001820154816001015560028201816002019080546117ed929190611acd565b5090505083600260008581526020019081526020016000206000820181600001908054600181600116156101000203166002900461182c929190611a46565b5060018201548160010155600282018160020190805461184d929190611acd565b5090505050505050505050565b60046020528060005260406000206000915090508054600181600116156101000203166002900480601f0160208091040260200160405190810160405280929190818152602001828054600181600116156101000203166002900480156119025780601f106118d757610100808354040283529160200191611902565b820191906000526020600020905b8154815290600101906020018083116118e557829003601f168201915b505050505081565b6000602052806000526040600020600091509050806000018054600181600116156101000203166002900480601f0160208091040260200160405190810160405280929190818152602001828054600181600116156101000203166002900480156119b65780601f1061198b576101008083540402835291602001916119b6565b820191906000526020600020905b81548152906001019060200180831161199957829003601f168201915b5050505050908060010154905082565b828054600181600116156101000203166002900490600052602060002090601f016020900481019282601f10611a0757805160ff1916838001178555611a35565b82800160010185558215611a35579182015b82811115611a34578251825591602001919060010190611a19565b5b509050611a429190611b40565b5090565b828054600181600116156101000203166002900490600052602060002090601f016020900481019282601f10611a7f5780548555611abc565b82800160010185558215611abc57600052602060002091601f016020900482015b82811115611abb578254825591600101919060010190611aa0565b5b509050611ac99190611b40565b5090565b828054828255906000526020600020908101928215611b0e5760005260206000209182015b82811115611b0d578254825591600101919060010190611af2565b5b509050611b1b9190611b65565b5090565b5080546000825590600052602060002090810190611b3d9190611b40565b50565b611b6291905b80821115611b5e576000816000905550600101611b46565b5090565b90565b611ba591905b80821115611ba157600081816101000a81549073ffffffffffffffffffffffffffffffffffffffff021916905550600101611b6b565b5090565b905600a165627a7a72305820ab2faadbe98d6a5fba5867bcdaba28832c80bbe86485a2b0b42e301ee8249f910029",
  "source": "pragma solidity ^0.4.23;\ncontract Access{\n    mapping(address => User) public addressToUsers;   \n    mapping(uint => address) public idToAddr ;\n    mapping(uint => User) public idToUser ;  \n    mapping(address => string) private addressToFile;\n    mapping(address => string) public addressToPassword;\n    string private empty = \"\"; \n    uint256 public registeredUsers ;\n    \n    struct User{\n        string name;\n        uint id;\n        address[] grantListIds;\n        mapping(address => uint) grantPermission;      // Id ->permissionBit\n        \n    }\n    \n    // just a UI to click on register with a name, We will switch between accounts and use metamask to\n    // register\n    function registerUser(string name,string pass) public returns(bool){\n        string isReg = addressToPassword[msg.sender];\n        // already registered\n        if(keccak256(isReg) != keccak256(empty)){\n            return false;\n        }\n        address reg = msg.sender;\n        // check if the user is already registered\n        uint id = ++registeredUsers;\n        User user;\n        user.id = id;\n        user.name = name;\n            // Add to mapping\n        addressToFile[reg] =  \"This is a dummy file\";\n        addressToUsers[reg] = user;\n        idToAddr[id] = reg;\n        idToUser[id] = user;\n        addressToPassword[reg] = pass;\n        return true;\n    }\n    \n    function login(string pass) view public returns(bool){\n        string val = addressToPassword[msg.sender];\n         if(keccak256(val) == keccak256(pass)){\n            return true;\n        }\n        return false;\n    }\n    \n    function resetState(User user) private{\n\n        uint length = user.grantListIds.length;\n        for(uint i = 0 ; i < length ; i++){\n            delete user.grantListIds[i];\n        }\n             \n    }\n        \n    function getGrantList() public view returns(address[]){\n        address userAddress = msg.sender;\n        User oldUser = addressToUsers[userAddress];\n        address[] gList = oldUser.grantListIds;\n        \n        return gList;\n    }\n    \n    function getPermissionBit(address add) public view returns(uint){\n        address userAddress = msg.sender;\n        User user = addressToUsers[userAddress];\n        uint ans = user.grantPermission[add] ;\n        return ans;\n    }\n    \n        \n    function editGrantList(uint[] ids , uint[] permission) public{\n        address userAddress = msg.sender;\n        User user = addressToUsers[userAddress];\n        uint id = user.id;\n        // flush the access list, client must send all ids again\n        uint length = user.grantListIds.length;\n        /* for(uint j = 0 ; j < length ; j++){\n                delete user.grantPermission[user.grantListIds[j]];\n        }*/\n        \n        delete user.grantListIds;\n \n         \n        // refill the list\n        for(uint i = 0 ; i < ids.length ; i++){\n   \n            user.grantListIds.push(idToAddr[ids[i]]); // maintain keys as address\n            user.grantPermission[idToAddr[ids[i]]] = permission[i]; // address , permission bit\n        }\n        \n        addressToUsers[userAddress] = user;            // set it back\n        idToUser[id] = user;                      // set it back\n         \n    }\n    \n    // display a drop down and select a value , in the tutorial it was shown how to read value\n    \n    function requestAccess(address userAddress) public view returns(uint,string) {\n         // user can access his own data with write access\n        if(msg.sender == userAddress){\n            return(1,getFile(userAddress));\n        }\n        \n        address sender = msg.sender;        // this is the hospital\n        //address userAddress = idToAddr[userID];\n        User user = addressToUsers[userAddress];\n        uint len = user.grantListIds.length;\n        uint userPermit = 0;\n        bool flag = false;\n        for(uint i = 0 ; i < len ; i++){\n            \n           /* if(sender == user.grantListIds[i]){\n                return user.name;\n            }*/\n            if(sender == user.grantListIds[i]){\n                userPermit = user.grantPermission[sender];\n                flag = true;\n                break;\n            }\n        }\n        \n        if(flag && (userPermit == 1 || userPermit == 0)){\n            return(userPermit,getFile(userAddress));\n        }else{\n            return(2,\"Access Denied\");\n        }\n    }\n    \n    // We can merge this later with the requestAccess function.\n    // make this private and then use the user object fetched in the requestAccess function to fetch the file\n    function getFile(address userAddress) public view returns(string) {\n        string file = addressToFile[userAddress];\n        return file;\n    }\n    \n    function saveFile(address userAddress,string file_content) public {\n        address sender = msg.sender;        // this is the hospital\n        User user = addressToUsers[userAddress];\n        // check if the sender has the correct rights\n        uint len = user.grantListIds.length;\n        uint userPermit = 0;\n        bool flag = false;\n        for(uint i = 0 ; i < len ; i++){\n            if(sender == user.grantListIds[i]){\n                userPermit = user.grantPermission[sender];\n                flag = true;\n                break;\n            }\n        }\n        if(flag && (userPermit == 1 )){\n            \n            addressToFile[userAddress] = file_content;\n        \n        }\n    }\n    \n    function getName() view public returns(string){\n        User user = addressToUsers[msg.sender];\n        return user.name;\n    }\n}\n\n\n    /* @TODO\n        Access all elements logic can be written directly into the frontend\n        1. use the regosteredUsers list;\n        2. for each user get idtoUser or IdtoAddr and then AddrTotUser\n        3. Use the user details and append in the table as new row\n        \n        4.a for viewAll just use the above logic in the table and user may add or remove changes\n        on clicking on submit\n        4.b for accessrequest use the above logoc to display the name of user in drop down list\n        on select gain the id value.\n        Access.deployed().then(function(instance){app = instance})\n    */\n    \n    // display a list of user objects , when the user checks the box, collect the Id and permissions\n    // send it to this function.\n    \n",
  "sourcePath": "/home/chetali/MS_3rd_sem/Blockchain/Test_Folder/project/Backend/Access/contracts/Access.sol",
  "compiler": {
    "name": "solc",
    "version": "0.4.24+commit.e67f0147.Emscripten.clang"
  },
  "schemaVersion": "2.0.1",
  "updatedAt": "2018-12-12T17:31:23.556Z"
}